:10000000FEC018C117C116C115C114C1F5C412C173
:1000100011C110C10FC10EC10DC10CC1FBC30AC17A
:1000200009C108C107C158C4A7C4A6C417C41DC4C8
:100030001FC425C42BC431C437C43BC43FC445C40A
:100040009BC49AC499C498C497C496C495C494C4D4
:1000500093C492C491C442C48FC48EC48DC48CC452
:100060008BC48AC489C488C487C486C485C484C434
:1000700083C482C481C480C47FC47EC47DC47CC464
:100080007BC47AC479C478C477C476C475C474C494
:1000900073C472C471C422C46FC46EC46DC46CC412
:1000A0006BC46AC469C468C467C466C465C464C4F4
:1000B00063C462C461C460C45FC45EC45DC45CC424
:1000C0005BC45AC459C458C457C456C455C454C454
:1000D00053C452C451C450C44FC44EC44DC44CC484
:1000E0004BC44AC449C448C447C446C445C444C4B4
:1000F00043C442C441C440C43FC43EC43DC43CC4E4
:100100003BC43AC439C438C437C436C435C434C413
:1001100033C432C431C430C42FC42EC42DC42CC443
:100120002BC42AC429C428C427C426C4DEC3E5C3FB
:10013000E8C3EFC3F6C3FDC304C409C40EC415C4A9
:1001400007634236B79BD8A71A39685618AEBAABC0
:10015000558C1D3CB7CC5763BD6DEDFD753EF61754
:100160007231BF000000803F08000000BE922449A9
:10017000123EABAAAA2ABECDCCCC4C3E00000080D9
:10018000BEABAAAAAA3E00000000BF000000803F4C
:100190000000000000084178D3BB4387D1133D190C
:1001A0000E3CC3BD4282AD2B3E68EC8276BED98F39
:1001B000E1A93E4C80EFFFBE01C4FF7F3F0000007D
:1001C00000004E414E494E495459494E46CDCCCC83
:1001D0003D0AD7233C17B7D13877CC2B329595E61B
:1001E000241FB14F0A000020410000C84200401CFB
:1001F0004620BCBE4CCA1B0E5AAEC59D74001124CD
:100200001FBECFE5D2E0DEBFCDBF10E0A0E6B0E07C
:10021000EEEFF8E102C005900D92A436B107D9F7D0
:1002200020E0A4E6B0E001C01D92A838B207E1F7D3
:100230008BD463CBE5CED89ADA9AD29AD09A8FEF44
:100240008FB98AE28DB980EF8EB908958EB98BE2AD
:100250009DE09A95F1F700008DB9CA9BFECF9AE018
:100260009A95F1F700C08DB9769BF2CF8DE08A9513
:10027000F1F700008FB19FEF9FB9D09A0895DA9AF5
:10028000CA9BFECF9DE09A95F1F70000D8989AE0BE
:100290009A95F1F700C0DA98D89ADA988FB98091D8
:1002A0006300D4DFD09880916200D0DF80958170A8
:1002B0000895D898DA9ACA9BFECF8AE08A95F1F71A
:1002C00000C0D89A8DE08A95F1F700000895CF9389
:1002D000C62FDA988FB980916300B8DFD0988091EB
:1002E0006200B4DFC111E5DFCF910895CF93DF93B2
:1002F000D82FD09880916300A9DFC82FDD2339F073
:100300008FEF8FB980916200A1DFD3DF04C01FB8E7
:10031000809162009BDF8C2FDF91CF9108959B012C
:10032000215031091216130684F4FC01E60FF71F61
:10033000DC0180E090E04C9152915D934083019606
:100340002150310982179307B4F308958F929F9239
:10035000AF92BF92CF92DF92EF92FF920F931F93D3
:10036000CF93DF936A0179016115710581059105CC
:10037000E1F08A01C0E0D0E00F2EFAE08F2E912C40
:10038000A12CB12CF02D2196A501940195D8605D8A
:10039000F80161938F01622F732F842F952F6115C0
:1003A00071058105910579F702C0C0E0D0E0CE1556
:1003B000DF055CF4CC0DDD1D96012E0D3F1D80E3A5
:1003C0008993C217D307E1F701C07E01B701C601C7
:1003D000A6DFF601EE0DFF1D1082B701FF0C880BA2
:1003E000990BDF91CF911F910F91FF90EF90DF90CC
:1003F000CF90BF90AF909F908F9008954F925F9253
:100400006F927F928F929F92AF92BF92CF92DF9224
:10041000EF92FF920F931F93CF93DF9300D000D002
:1004200000D0CDB7DEB74B015C018A013E832D833E
:100430004CD52B013C0120E030E0A80187DF6B01A7
:100440007C012D813E812115310561F1F801E60F16
:10045000F71F8EE28083B901330F880B990B68D5A3
:100460009B01AC0160E070E080E291E458D66983C2
:100470007A838B839C83C301B2015AD59B01AC0163
:10048000C501B401BDD43FEFC31AD30AC00ED11EBB
:1004900029813A814B815C81D7D517D52D813E8149
:1004A000A60154DF26960FB6F894DEBF0FBECDBF6F
:1004B000DF91CF911F910F91FF90EF90DF90CF9040
:1004C000BF90AF909F908F907F906F905F904F9074
:1004D0000895CF92DF92EF92FF920F931F93CF93E5
:1004E000DF9300D01F92CDB7DEB780E2898303C0CF
:1004F00099819150998387E0C2DE811104C0E9811E
:10050000E111F6CF6CC1F981FF2309F468C180E0E5
:10051000EDDE8093740080917400823401F118F450
:10052000813441F05DC1833409F4B7C0843409F4E7
:10053000C9C056C180E790E09B838A8304E710E03E
:1005400080E0D4DEEA81FB818193FB83EA830E178E
:100550001F07B1F781E0CADE8093640041C180E0EB
:10056000C5DEC82ED12CE12CF12CC0926C00D092AB
:100570006D00E0926E00F0926F0080E0B7DEFE2C1E
:10058000ED2CDC2CCC24C80ED11CE11CF11CC0923B
:100590006C00D0926D00E0926E00F0926F0080E0EF
:1005A000A5DEFE2CED2CDC2CCC24C80ED11CE11CCD
:1005B000F11CC0926C00D0926D00E0926E00F0923F
:1005C0006F0081E093DEFE2CED2CDC2CCC24C80ED9
:1005D000D11CE11CF11CFF205CF0C0926C00D09299
:1005E0006D00E0926E00F0926F00FBE2F98312C0A2
:1005F000F094E094D094C094C11CD11CE11CF11C77
:10060000C0926C00D0926D00E0926E00F0926F008C
:100610008DE28983E0E7F0E010821182128213827A
:1006200060916C0070916D0080916E0090916F00F0
:1006300004E710E01B821A820F2EFAE0CF2ED12C95
:10064000E12CF12CF02DA701960136D7605DF80161
:1006500062938F018A819B8101969B838A83622F9B
:10066000732F842F952F16161706180619065CF39C
:1006700060936C0070936D0080936E0090936F0098
:1006800099819D3209F0ACC0E3E7F0E08A819B815B
:10069000E81BF90B8DE28083A3C0E0E7F0E0FB8369
:1006A000EA8304E710E080E021DEEA81FB818193A8
:1006B000FB83EA83E017F107B1F781E017DE80934F
:1006C00064008EC085E690E090936B0080936A0092
:1006D00080E00CDEE5E6F0E0808300916A00109196
:1006E0006B00C801019690936B0080936A0080E0D4
:1006F000FDDDF801818300916A0010916B00C80153
:10070000019690936B0080936A0080E0EFDDF80122
:10071000818300916A0010916B00C801019690934B
:100720006B0080936A0081E0E1DDF801818385E65A
:1007300090E09093840080938300FC01608171813C
:100740008281938160936500709366008093670057
:100750009093680022E030E045E750E04FDE809162
:1007600075008E3209F045C0EEE7F0E025E730E095
:1007700082918183E217F307D9F780E380937500B4
:1007800038C0CF01FC0131962D912E32D1F7F09374
:100790008000E0937F00DC01AB58BF4F8C918068F4
:1007A0008C93E930F1054CF4EB58FF4F2EE730E025
:1007B00081818193E217F307D9F7E0E7F0E0A5E73D
:1007C000B0E08C91808311968C9111978183129661
:1007D0008C911297828313968C91838301C069DD7B
:1007E00060916C0070916D0080916E0090916F002F
:1007F00005C0A6E7B0E080E090E0C4CF0F900F9076
:100800000F90DF91CF911F910F91FF90EF90DF90AC
:10081000CF9008951F920F920FB60F9211248F93CD
:100820008BB388698BBB88B38E6388BB8F910F9025
:100830000FBE0F901F901895E0918100F0918200FB
:10084000E059FF4FE0818E2F90E0FC01BD97ED381D
:10085000F10508F091C0ED5EFF4F09948BB38776E8
:100860008BBB88B3897E88BB0895DF98C4980895B0
:100870008BB387778BBB88B3897D88BB08958BB397
:1008800087778BBB88B38B7C88BB08958BB38F76BF
:100890008BBB88B38F7C88BB08958BB3877E8BBB63
:1008A00088B38B7C88BB0895DC9888B3897C88BB2F
:1008B00008958BB387778BBBC49808958BB38776E5
:1008C0008BBB88B3897C88BB08958BB387768BBB41
:1008D00088B38F7C88BB0895C598089588B3877EB8
:1008E00088BB88B3897D88BB08958BB387768BBB23
:1008F00088B3897E88BBC3980895DF98C498C3984D
:1009000008958BB387778BBB88B3897D88BBC398E9
:1009100008958BB387778BBB88B38B7C88BBC398D8
:1009200008958BB38F768BBB88B38F7C88BBC398BD
:1009300008958BB3877E8BBB88B38B7C88BBC398B1
:100940000895DC9888B3897C88BBC39808958BB3DD
:1009500087778BBBC498C39808958BB387768BBB7E
:1009600088B3897C88BBC39808958BB387768BBB8B
:1009700088B38F7C88BBC398089580918100909143
:100980008200019690938200809381008091810083
:100990009091820083709078992324F401978C6F52
:1009A0009F6F0196909382008093810088B38E7B25
:1009B00088BB8BB38F798BBB8BB388698BBB88B3B8
:1009C0008E6388BB80918100909182008130910577
:1009D00061F01CF4892B39F00DC08230910539F09B
:1009E000039739F007C0C09A05C0DD9A03C0DE9AAC
:1009F00001C0C69A21DF08951F920F920FB60F9281
:100A000011242F933F934F935F936F937F938F9313
:100A10009F93AF93BF93EF93FF938FE784BB8FEFC9
:100A200082BFABDF809185008F5F809385008091CE
:100A30008500893119F4109285004BDDFF91EF910B
:100A4000BF91AF919F918F917F916F915F914F91E6
:100A50003F912F910F900FBE0F901F901895CF923E
:100A6000DF92EF92FF920F931F93CF93FC019C01B3
:100A70002C5F3F4F60E070E0CB01CBE2419144231B
:100A800009F44DC04D3209F449C044231CF5DC0182
:100A9000CB01880F991FAA1FBB1F6C017D01CC0CD5
:100AA000DD1CEE1CFF1CCC0CDD1CEE1CFF1CC80E5C
:100AB000D91EEA1EFB1E4F77842F90E0C097092EA7
:100AC000000CAA0BBB0BBC01CD016C0D7D1D8E1D56
:100AD0009F1D25C0DC01CB01880F991FAA1FBB1FDA
:100AE0006C017D01CC0CDD1CEE1CFF1CCC0CDD1C54
:100AF000EE1CFF1C8C0D9D1DAE1DBF1D50E0405314
:100B00005109052E000C660B770B7A018B01E80E5C
:100B1000F91E0A1F1B1FC801B70101C0CDE2E21771
:100B2000F30709F0ABCFCD3239F4909580957095ED
:100B300061957F4F8F4F9F4FCF911F910F91FF90E6
:100B4000EF90DF90CF900895CF93DF9300D000D047
:100B5000CDB7DEB7A89584B7877F84BF81B588619C
:100B600081BD11BC85B78F7B85BF1ABA8FEF8BBB58
:100B700017BA88BB889A61B7809160009091610034
:100B8000039776D6E0906000F0906100C70102976D
:100B900067D6182F80EF810F803E30F4C701019790
:100BA0005FD6181301C011BF8AB3886F8ABB87B3A1
:100BB0008F6787BB88B38E7B88BB8BB38F798BBBEA
:100BC0008BB388698BBB88B38E6388BBAF9A81E097
:100BD00082BB13BA8FE784BB8FEF82BF89B7826174
:100BE00089BF10928500789426DB86E048DB882355
:100BF000E1F310E004C061E084E069DB07C060E07D
:100C0000812F65DB1F5F1430D1F7F5CF86E037DB2E
:100C10008823E1F315E01EC061E089E058DB81E044
:100C200083BF0F2EFCE64F2EF0E05F2EF02D0FE776
:100C300010E00F2EF5E7EF2EF0E0FF2EF02D8824C8
:100C40008394912CCE0101966C010F2EFEE27F2E33
:100C5000F02D07C060E0812F3ADB1F5F1930D1F71C
:100C6000DBCF809164008823E1F3109264008091CF
:100C70007400813419F0833491F1F3CF80E790E070
:100C8000EEDE60936C0070936D0080936E00909325
:100C90006F0086E0F4DA8823E1F30F2EF8E1AF2E3F
:100CA000B12CF02D05C061E0F201808110DBD9CFBD
:100CB00080916C0090916D00A0916E00B0916F00DA
:100CC0000A2C04C0B595A795979587950A94D2F7F5
:100CD00060E0FDDAF8E0AF1AB10851F7E4CFE5E7DC
:100CE000F0E01192E017F107E1F7E0E7F0E0808132
:100CF00031812281938105C0482F832F322F292FE4
:100D0000942F8823C9F3F70180833183228393834F
:100D10001092800010927F0088230CF46AC0E6E7EE
:100D2000F0E081E090E0219122232CF001968A30BE
:100D30009105C9F721C0AC014F5F5F4F5093800010
:100D400040937F0041155105B9F04930510554F4E5
:100D5000EEE7F0E09A012B583F4F82918183E21732
:100D6000F307D9F7FA01EB58FF4F7082FA01EC58FC
:100D7000FF4F90819F779083C701DCD369837A838B
:100D80008B839C83D0926B00C0926A0086E077DAF6
:100D90008823E1F3E0916A00F0916B0060E08081CC
:100DA00096DAE0916A00F0916B00CF010196909382
:100DB0006B0080936A0060E0818189DAE0916A00CB
:100DC000F0916B00CF01019690936B0080936A00C5
:100DD00060E081817CDAE0916A00F0916B00CF01E4
:100DE000019690936B0080936A0061E081816FDAD5
:100DF00038CF80927F0090928000482D592DA8CF47
:100E00005058BB27AA270ED0E5C0D6D030F0DBD093
:100E100020F031F49F3F11F41EF4CBC00EF4E095A6
:100E2000E7FBC1C0E92FE7D080F3BA176207730769
:100E30008407950718F071F49EF5FFC00EF4E09555
:100E40000B2EBA2FA02D0B01B90190010C01CA0184
:100E5000A0011124FF27591B99F0593F50F4503E2F
:100E600068F11A16F040A22F232F342F4427585F21
:100E7000F3CF469537952795A795F0405395C9F739
:100E80007EF41F16BA0B620B730B840BBAF09150F1
:100E9000A1F0FF0FBB1F661F771F881FC2F70EC090
:100EA000BA0F621F731F841F48F487957795679563
:100EB000B795F7959E3F08F0B3CF9395880F08F04C
:100EC0009927EE0F97958795089504D06894B111EE
:100ED000B5C0089598D088F09F5790F0B92F992702
:100EE000B751A0F0D1F0660F771F881F991F1AF035
:100EF000BA95C9F712C0B13081F09FD0B1E0089522
:100F00009CC0672F782F8827B85F39F0B93FCCF3A2
:100F1000869577956795B395D9F73EF4909580952A
:100F2000709561957F4F8F4F9F4F0895E89409C04A
:100F300097FB3EF490958095709561957F4F8F4F0C
:100F40009F4F9923A9F0F92F96E9BB279395F69522
:100F5000879577956795B795F111F8CFFAF4BB0FA0
:100F600011F460FF1BC06F5F7F4F8F4F9F4F16C004
:100F7000882311F096E911C0772321F09EE8872F8E
:100F8000762F05C0662371F096E8862F70E060E04A
:100F90002AF09A95660F771F881FDAF7880F9695C3
:100FA000879597F9089597F99F6780E870E060E06A
:100FB00008959FEF80EC089500240A9416161706F2
:100FC00018060906089500240A941216130614063A
:100FD00005060895092E0394000C11F4882352F09D
:100FE000BB0F40F4BF2B11F460FF04C06F5F7F4F55
:100FF0008F4F9F4F089557FD9058440F551F59F03C
:101000005F3F71F04795880F97FB991F61F09F3FF5
:1010100079F087950895121613061406551FF2CF1E
:101020004695F1DF08C0161617061806991FF1CF6E
:1010300086957105610508940895E894BB27662795
:101040007727CB0197F908950AD0C4CFB5DF28F0F0
:10105000BADF18F0952309F0A6CFABCFEFCFCBDFE7
:10106000A8F39923D9F35523C9F3950F50E0551FE1
:10107000AA27EE27FF27BB2700240894679520F4B2
:10108000E20FF31FB41F0A1E220F331F441FAA1FB3
:101090006695A9F7779530F4F30FB41F0A1E121E58
:1010A00008F46395330F441FAA1F221F769599F702
:1010B000879520F4B40F0A1E121E631F440FAA1F47
:1010C000221F331F8695A9F7862F712D602D1124BD
:1010D0009F5750408AF0E1F088234AF0EE0FFF1F3F
:1010E000BB1F661F771F881F91505040A9F79E3F76
:1010F000510570F058CFA2CF5F3FECF3983EDCF380
:10110000869577956795B795F795E7959F5FC1F7B2
:10111000FE2B880F911D9695879597F90895FA01F2
:10112000EE0FFF1F30962105310599F1611571050C
:1011300061F48038BFE39B0749F1689490388105DA
:1011400061F08038BFEF9B0741F0992342F5FF3FE4
:10115000E1053105210511F1E8940894E795D901DD
:10116000AA2329F4AB2FBE2FF85FD0F310C0FF5F86
:1011700070F4A695E0F7F73950F019F0FF3A38F41B
:101180009F779F930CD00F9007FC905808953EF0E6
:1011900010CF60E070E080E89FE308954FE79F770D
:1011A0005F934F933F932F939ED02F913F914F91F9
:1011B0005F914ADF05C019F40EF0F5CE3ECFF9CEAF
:1011C00022DFC8F39638C0F707F80F92E8942BE3B4
:1011D0003AEA48EB5FE745DF0F920F920F924DB767
:1011E0005EB70F92C0D0E0E4F1E016D04F915F916E
:1011F000EF91FF91E595EE1FFF1F49F0FE57E06864
:101200004427EE0F441FFA95E1F74195550B32D074
:101210000F9007FE26C00895DF93CF931F930F937F
:10122000FF92EF92DF927B018C01689405C0DA2E69
:10123000EF0115DFFE01E894A591259135914591C7
:101240005591AEF3EF01EEDDFE019701A801DA94AE
:1012500079F7DF90EF90FF900F911F91CF91DF9181
:1012600008959B01AC0160E070E080E89FE3AEC0B0
:101270009ACE14C1C8DEE8F39923D9F3940F511D17
:10128000BBF39150504094F059F0882332F0660F30
:10129000771F881F91505040C1F79E3F510544F77A
:1012A000880F911D9695879597F908955F3FACF04B
:1012B000983E9CF0BB27869577956795B79508F47F
:1012C000B1609395C1F7BB0F58F711F460FFE8CFF9
:1012D0006F5F7F4F8F4F9F4FE3CFB0CE0EF0DEC0DA
:1012E00068CE689460CE8FDEC8F39923D1F3C6F33D
:1012F000DF93CF931F930F93FF92C92FDD2788238E
:101300002AF02197660F771F881FDAF720E030E078
:1013100040E85FEB9FE3883920F0803E30F0219673
:101320008F776FDDE8E6F1E003C06BDDE5E9F1E022
:1013300073DF8B01BE01EC01FB2E6F5771097595B0
:10134000771F880B990BF4DD28E132E741E35FE377
:1013500086DEAF2D9801AE01FF900F911F91CF91C6
:10136000DF9160DD37CEFA01DC01AA0FBB1F9B01C4
:10137000AC01BF5728F422273327442750781FC0D9
:10138000B75188F4AB2F0024469537952795011C5B
:10139000A395D2F3002069F0220F331F441FB395A9
:1013A000DAF30DD02DCD61307105A0E88A07B9467A
:1013B00030F49B01AC016627772788279078309618
:1013C00021F0208331834283538308950CD002CED1
:1013D000FADD40F0F1DD30F021F45F3F19F0E3CDAC
:1013E00051112CCEE6CD07DE98F39923C9F355238E
:1013F000B1F3951B550BBB27AA2762177307840708
:1014000038F09F5F5F4F220F331F441FAA1FA9F3BD
:1014100033D00E2E3AF0E0E830D091505040E695AF
:10142000001CCAF729D0FE2F27D0660F771F881F10
:10143000BB1F261737074807AB07B0E809F0BB0BFF
:10144000802DBF01FF2793585F4F2AF09E3F510523
:1014500068F0A9CDF3CD5F3FECF3983EDCF38695C1
:1014600077956795B795F7959F5FC9F7880F911D99
:101470009695879597F90895E1E0660F771F881F85
:10148000BB1F621773078407BA0720F0621B730B38
:10149000840BBA0BEE1F88F7E09508959F3F31F05B
:1014A000915020F4879577956795B795880F911D92
:1014B0009695879597F90895052E97FB16F4009455
:1014C0000FD057FD05D014D007FC02D046F408C059
:1014D00050954095309521953F4F4F4F5F4F089560
:1014E00090958095709561957F4F8F4F9F4F089590
:1014F000A1E21A2EAA1BBB1BFD010DC0AA1FBB1F18
:10150000EE1FFF1FA217B307E407F50720F0A21B89
:10151000B30BE40BF50B661F771F881F991F1A94F6
:1015200069F760957095809590959B01AC01BD0120
:10153000CF0108956627772700C0A0E0B0E0E2EA77
:10154000FAE0AAC1EC017B016115710519F0FB01FC
:10155000918380836E01FFEFCF1ADF0A0881802F0D
:1015600090E033D1892B11F0E601F4CF0D3239F43C
:101570006E0132E0C30ED11C098111E008C00B32AC
:1015800029F46E0152E0C50ED11C098110E0E6017C
:10159000219743E050E06AEC71E0CE011ED1892B27
:1015A000B9F4239645E050E065EC71E0CE0115D129
:1015B000892B09F42596E114F10419F0F701D18380
:1015C000C0831111F5C060E070E080E89FE7F9C0CA
:1015D00043E050E062EC71E0CE01FFD0892B51F482
:1015E000E114F10409F4E9C0C6010296F701918300
:1015F0008083E3C060E070E0CB01C0E0D0E0F601A2
:1016000030ED300F3A3078F5212F2260A12FA870ED
:1016100012FF04C0A1112DC021962BC0A11121974A
:101620004B015C01B2E0880C991CAA1CBB1CBA954A
:10163000D1F7AB01BC01480D591D6A1D7B1D440F3C
:10164000551F661F771FCB01BA01630F711D811DE6
:10165000911D683939E97307830739E1930748F029
:10166000212F266006C03E3F51F413FD40C0212FBC
:1016700028605FEFC51AD50A0081122FC0CF202F36
:101680002F7D2534A1F540814D3211F4106106C043
:101690004B3221F0319621E030E004C04181329696
:1016A00022E030E040534A3018F0E21BF30B1FC039
:1016B00020E030E020385CE035075CF4D901AA0F67
:1016C000BB1FAA0FBB1F2A0F3B1F220F331F240F64
:1016D000311D3196DF0111974C9140534A3050F340
:1016E00014FF03C0319521953109C20FD31F11FF9B
:1016F00009C0E114F10431F09F0121503109F701D3
:101700003183208313DC212F2370233019F04B0108
:101710005C0106C04B015C01B7FAB094B7F8B09415
:1017200020E030E0A901C501B4016FD0882309F49D
:101730003CC0D7FF06C0D195C195D10901EE11E09B
:1017400002C009EF11E06801F8E1CF1AD10890E278
:10175000E92EF12CCE15DF056CF0F80125913591BD
:1017600045915491C501B4016FDC4B015C01CE1968
:10177000DF09F0CF04501109F594E7940C151D050D
:1017800049F78A2D880F8B2D881F8F3F41F020E06D
:1017900030E0A901C501B40138D0811106C082E250
:1017A00090E09093870080938600C501B40109C042
:1017B00060E070E080E89FEF04C060E070E080ECE3
:1017C0009FE7CDB7DEB7ECE083C0911146C0803211
:1017D00019F089508550D0F70895FB01DC01415084
:1017E000504088F08D9181341CF08B350CF4805E74
:1017F000659161341CF06B350CF4605E861B6111E1
:1018000071F3990B0895881BFCCF03D008F481E095
:101810000895990F0008550FAA0BE0E8FEEF161681
:101820001706E807F907C0F012161306E407F507D4
:1018300098F0621B730B840B950B39F40A2661F048
:10184000232B242B252B21F408950A2609F4A140EB
:10185000A6958FEF811D811D0895992788270895EA
:10186000E199FECF9FBB8EBBE09A99278DB3089577
:10187000262FE199FECF1CBA9FBB8EBB2DBB0FB6A6
:10188000F894E29AE19A0FBE019608952F923F9242
:101890004F925F926F927F928F929F92AF92BF9280
:1018A000CF92DF92EF92FF920F931F93CF93DF932C
:1018B000CDB7DEB7CA1BDB0B0FB6F894DEBF0FBE89
:1018C000CDBF09942A88398848885F846E847D84D6
:1018D0008C849B84AA84B984C884DF80EE80FD80D8
:1018E0000C811B81AA81B981CE0FD11D0FB6F8944E
:0E18F000DEBF0FBECDBFED010895F894FFCF0F
:0418FE000002FEF0F6
:00000001FF
