:100000009FC0B9C0B8C0B7C0B6C0B5C04BC3C1C0AF
:10001000D9C0B1C0B0C0AFC0AEC0ADC04EC2ABC0A1
:10002000AAC0A9C0A8C0ABC2FDC2FCC26AC270C24D
:1000300072C278C27EC284C28AC28EC292C298C282
:10004000F1C2F0C2EFC2EEC2EDC2ECC2EBC2EAC234
:10005000E9C2E8C2E7C295C2E5C2E4C2E3C2E2C2B5
:10006000E1C2E0C2DFC2DEC2DDC2DCC2DBC2DAC294
:10007000D9C2D8C2D7C2D6C2D5C2D4C2D3C2D2C2C4
:10008000D1C2D0C2CFC2CEC2CDC2CCC2CBC2CAC2F4
:10009000C9C2C8C2C7C275C2C5C2C4C2C3C2C2C275
:1000A000C1C2C0C2BFC2BEC2BDC2BCC2BBC2BAC254
:1000B000B9C2B8C2B7C2B6C2B5C2B4C2B3C2B2C284
:1000C000B1C2B0C2AFC2AEC2ADC2ACC2ABC2AAC2B4
:1000D000A9C2A8C2A7C2A6C2A5C2A4C2A3C2A2C2E4
:1000E000A1C2A0C29FC29EC29DC29CC29BC29AC214
:1000F00099C298C297C296C295C294C293C292C244
:1001000091C290C28FC28EC28DC28CC28BC28AC273
:1001100089C288C287C286C285C284C283C282C2A3
:1001200081C280C27FC27CC27DC27CC231C238C261
:100130003BC242C249C250C257C25CC261C268C21D
:1001400011241FBECFE5D2E0DEBFCDBF10E0A0E698
:10015000B0E0E2E2F7E002C005900D92A236B107EE
:10016000D9F720E0A2E6B0E001C01D92A938B2079D
:10017000E1F7DBD0D4C244CF80937D00DA9AD89ADD
:10018000D29AD09888EA8DB980EF8EB910927E000D
:1001900008951F920F920FB60F9211248F938EB174
:1001A00010926200D09889B38DE08A95F1F7000033
:1001B00088EF8DB980EF8EB98F910F900FBE0F90A1
:1001C0001F9018951F920F920FB60F9211248F93C4
:1001D0009F93EF93FF9380916200823009F468C08F
:1001E00028F4882359F08130D9F196C0843009F47D
:1001F00067C060F1853009F46AC08EC08FB1882372
:1002000031F08FB1869590917D00891318C081E0FF
:1002100080937E00789B07C08093620010927800E4
:100220001092770003C084E08093620010928600F1
:10023000109285001FB8D09A8EE78EB96DC088EAFB
:100240008DB980E78EB910927E0066C08FB1882389
:1002500039F088EA8DB980E78EB910927E005CC0D3
:10026000E0917700F0917800ED59FF4F808188236D
:10027000C1F0E0917700F0917800ED59FF4F808157
:100280008FB98091770090917800019690937800D3
:100290008093770082E080936200D09A80E78EB9E5
:1002A0003BC088EA8DB980E78EB910927E0034C0D9
:1002B00083E080936200D0981FB88EE78EB92CC07F
:1002C00085E080936200D09880E78EB925C0E091E8
:1002D0008500F09186008FB1E758FF4F80838091B1
:1002E000850090918600019690938600809385000A
:1002F0008091850090918600049739F488EA8DB941
:1003000080E78EB910927E0007C084E0809362007F
:100310001FB8D09A8EE78EB9FF91EF919F918F9180
:100320000F900FBE0F901F901895A89584B7877FE8
:1003300084BF81B5886181BD11BC889AD99A61B7A3
:1003400080916000909161000397DBD10091600083
:1003500010916100C8010297CCD1C82F80EF8C0F9B
:10036000803E30F4C8010197C4D1C81301C0C1BF99
:100370008AB3886F8ABB87B38F6787BB88B38E7B4E
:1003800088BB8BB38F798BBB8BB388698BBB88B3EE
:100390008E6388BBAF9A91E092BB13BA8FE784BBA0
:1003A0008FEF82BF89B7826189BF93BF7894EFE7EF
:1003B000F0E080E3808381E3818382E3828383E3CF
:1003C000838384E0D9DE49E750E0A3E6B0E02DE680
:1003D00030E003E010E080917E008823E1F380911B
:1003E0007E008111FCCFE9E7F0E083E090E06081DE
:1003F000EC01C158DF4F688311920197C0F701509B
:10040000110949F780917E008823E1F380917E00F5
:100410008111FCCFFA018081883511F163E070E031
:1004200047C081938F5F8B34E1F790917E009923D1
:10043000E1F390917E009111FCCF89938F5F853518
:10044000E1F71A961C921A9780917E008823E1F3B7
:1004500080917E008111FCCF6150710919F4B9CFF0
:1004600063E070E0C3E6D0E0FE0181E4DACF899377
:100470008F5F8A33E1F780917E008823E1F38091DA
:100480007E008111FCCF89E3819381502E173F07B5
:10049000D9F71A961C921A9780917E008823E1F36F
:1004A00080917E008111FCCF6150710909F491CFD8
:1004B000E3E6F0E0EF0180E3DACF1F920F920FB690
:1004C0000F9211248F938BB388698BBB88B38E6393
:1004D00088BB8F910F900FBE0F901F901895E091E1
:1004E0008300F0918400E158FF4FE0818E2F90E06F
:1004F000FC01BD97ED38F10508F094C0ED5EFF4FAB
:1005000009948BB387768BBB88B3897E88BB0895AB
:10051000DF98C49808958BB387778BBB88B3897DA8
:1005200088BB08958BB387778BBB88B38B7C88BBE4
:1005300008958BB38F768BBB88B38F7C88BB08956F
:100540008BB3877E8BBB88B38B7C88BB0895DC988C
:1005500088B3897C88BB08958BB387778BBBC4989D
:1005600008958BB387768BBB88B3897C88BB08954D
:100570008BB387768BBB88B38F7C88BB0895C59877
:1005800008958BB3877E8BBB88B3897D88BB089524
:100590008BB387768BBB88B3897E88BBC39808955D
:1005A000DF98C498C39808958BB387778BBB88B3C3
:1005B000897D88BBC39808958BB387778BBB88B33D
:1005C0008B7C88BBC39808958BB38F768BBB88B325
:1005D0008F7C88BBC39808958BB3877E8BBB88B311
:1005E0008B7C88BBC3980895DC9888B3897C88BBD2
:1005F000C39808958BB387778BBBC498C39808952D
:100600008BB387768BBB88B3897C88BBC3980895EE
:100610008BB387768BBB88B38F7C88BBC3980895D8
:10062000C598C398089580918300909184000196A5
:100630009093840080938300809183009091840044
:1006400083709078992324F401978C6F9F6F0196A3
:10065000909384008093830088B38E7B88BB8BB398
:100660008F798BBB8BB388698BBB88B38E6388BB58
:1006700080918300909184008130910561F01CF499
:10068000892B39F00DC08230910539F0039739F08C
:1006900007C0C09A05C0DD9A03C0DE9A01C0C69AA1
:1006A0001EDF08951F920F920FB60F9211242F9301
:1006B0003F934F935F936F937F938F939F93AF93EA
:1006C000BF93EF93FF938FE784BB8FEF82BFABDFC6
:1006D000FF91EF91BF91AF919F918F917F916F911A
:1006E0005F914F913F912F910F900FBE0F901F90F0
:1006F0001895E199FECF9FBB8EBBE09A99278DB3E9
:100700000895262FE199FECF1CBA9FBB8EBB2DBB4F
:100710000FB6F894E29AE19A0FBE01960895F89404
:02072000FFCF09
:020722000002D3
:00000001FF
