:10000000FEC018C117C116C115C114C1F5C612C171
:1000100011C110C10FC10EC10DC10CC1EFC50AC184
:1000200009C108C107C14CC69EC69DC60BC611C6F4
:1000300013C619C61FC625C62BC62FC633C639C65A
:1000400092C691C690C68FC68EC68DC68CC68BC60C
:100050008AC689C688C636C686C685C684C683C68D
:1000600082C681C680C67FC67EC67DC67CC67BC66C
:100070007AC679C678C677C676C675C674C673C69C
:1000800072C671C670C66FC66EC66DC66CC66BC6CC
:100090006AC669C668C616C666C665C664C663C64D
:1000A00062C661C660C65FC65EC65DC65CC65BC62C
:1000B0005AC659C658C657C656C655C654C653C65C
:1000C00052C651C650C64FC64EC64DC64CC64BC68C
:1000D0004AC649C648C647C646C645C644C643C6BC
:1000E00042C641C640C63FC63EC63DC63CC63BC6EC
:1000F0003AC639C638C637C636C635C634C633C61C
:1001000032C631C630C62FC62EC62DC62CC62BC64B
:100110002AC629C628C627C626C625C624C623C67B
:1001200022C621C620C61DC61EC61DC6D2C5D9C53B
:10013000DCC5E3C5EAC5F1C5F8C5FDC502C609C6FB
:1001400007634236B79BD8A71A39685618AEBAABC0
:10015000558C1D3CB7CC5763BD6DEDFD753EF61754
:100160007231BF000000803F08000000BE922449A9
:10017000123EABAAAA2ABECDCCCC4C3E00000080D9
:10018000BEABAAAAAA3E00000000BF000000803F4C
:100190000000000000084178D3BB4387D1133D190C
:1001A0000E3CC3BD4282AD2B3E68EC8276BED98F39
:1001B000E1A93E4C80EFFFBE01C4FF7F3F0000007D
:1001C00000004E414E494E495459494E46CDCCCC83
:1001D0003D0AD7233C17B7D13877CC2B329595E61B
:1001E000241FB14F0A000020410000C84200401CFB
:1001F0004620BCBE4CCA1B0E5AAEC59D74001124CD
:100200001FBECFE5D2E0DEBFCDBF10E0A0E6B0E07C
:10021000ECEEFDE102C005900D92A436B107D9F7CE
:1002200020E0A4E6B0E001C01D92A739B207E1F7D3
:10023000ADD6DACDE5CED89ADA9AD29AD09A8FEFA7
:100240008FB98AE28DB980EF8EB908958EB98BE2AD
:100250009DE09A95F1F700008DB9CA9BFECF9AE018
:100260009A95F1F700C08DB9769BF2CF8DE08A9513
:10027000F1F700008FB19FEF9FB9D09A0895DA9AF5
:10028000CA9BFECF9DE09A95F1F70000D8989AE0BE
:100290009A95F1F700C0DA98D89ADA988FB98091D8
:1002A0006300D4DFD09880916200D0DF80958170A8
:1002B0000895D898DA9ACA9BFECF8AE08A95F1F71A
:1002C00000C0D89A8DE08A95F1F700000895CF9389
:1002D000C62FDA988FB980916300B8DFD0988091EB
:1002E0006200B4DFC111E5DFCF910895CF93DF93B2
:1002F000D82FD09880916300A9DFC82FDD2339F073
:100300008FEF8FB980916200A1DFD3DF04C01FB8E7
:10031000809162009BDF8C2FDF91CF910895EF9247
:10032000FF920F931F93CF93DF93EC019C01205F0B
:100330003F4F7C018FEFE81AF80AF901319780816D
:10034000882321F0803309F0E7C01082EE16FF0603
:10035000A9F7E2C0C8015291511107C08C010150A8
:100360001109C1F702C08FE090E0FE01E80FF91F0C
:100370005081553308F4DDC08C0101501109108201
:10038000FE01E00FF11F50815E3211F4015011099E
:10039000FE01E00FF11F80818F5F80838A3309F0B7
:1003A000C8C0C80101971082FE01E80FF91F5081F3
:1003B0005E3219F40250110901C08C01FE01E00FF8
:1003C000F11F80818F5F80838A3359F3B2C080EB45
:1003D00080937E001EC0F70181E090E051915E3273
:1003E00029F0019680319105C9F7A8C0FC01319729
:1003F000EC0FFD1F5081506850838F3091054CF4F5
:10040000FE01E80FF91F5181519301968F3091053C
:10041000D4F36D3209F0A0C0BE01D9018E919D01C7
:1004200011968C9311976A177B07B9F78DE2888331
:10043000411122C08EC09C01F70181917F01882368
:1004400029F0C901019680319105A9F748E050E0F3
:10045000421B530B69F454C0829181832E173F07CE
:10046000D9F718824150510921F44AC048E050E0C0
:100470009E01FE013F96F0CF4A3014F083E001C0A8
:1004800082E0473F0CF46BC0242F99E0940F993021
:1004900048F0833039F0823099F5405D4F8385E430
:1004A0008E832EC014166CF43AE0842F632F63DA27
:1004B000905D9F83632F5FDA80E3890F8E8385E4ED
:1004C0008D834423ECF480E3821B8F838DE28E8343
:1004D00085E48D8315C0242F332721950CF43095A6
:1004E000C9012AE030E0B90153DA805D8F83CB0186
:1004F000B9014EDA805D8E838DE28D8385E48C8335
:10050000EEE7F0E0A1E7B0E026E830E081918D93DE
:10051000E217F307D9F72AC08F85811124CFFE0196
:100520003F968EE090E017CF88818E3209F053CF4E
:1005300005C080917E008E32B9F749CFFE018291CD
:100540008068808380E090E05BCF8881882309F415
:100550008DCF21E030E070CF41118ECFF6CF242F28
:1005600089E0840F893008F49DCFB5CFDF91CF911A
:100570001F910F91FF90EF9008959B012150310939
:100580001216130684F4FC01E60FF71FDC0180E06D
:1005900090E04C9152915D93408301962150310936
:1005A00082179307B4F308958F929F92AF92BF92F0
:1005B000CF92DF92EF92FF920F931F93CF93DF932F
:1005C0006A0179016115710581059105E1F08A01E2
:1005D000C0E0D0E00F2EFAE08F2E912CA12CB12C90
:1005E000F02D2196A5019401E6D9605DF801619393
:1005F0008F01622F732F842F952F6115710581054F
:10060000910579F702C0C0E0D0E0CE15DF055CF4BB
:10061000CC0DDD1D96012E0D3F1D80E38993C21781
:10062000D307E1F701C07E01B701C601A6DFF601DD
:10063000EE0DFF1D1082B701FF0C880B990BDF91A7
:10064000CF911F910F91FF90EF90DF90CF90BF90CF
:10065000AF909F908F9008952F923F924F925F920C
:100660006F927F928F929F92AF92BF92CF92DF92C2
:10067000EF92FF920F931F93CF93DF936B017C0157
:100680008A01E90120E030E0A90152D688234CF428
:10069000F7FAF094F7F8F0940F2EFDE22F2EF02DDC
:1006A00004C00F2EFBE22F2EF02DF801C80140965A
:1006B00011928E179F07E1F7C701B601A5D64B012E
:1006C0005C0199233CF4882499245401861A970AE2
:1006D000A80AB90AD501C4018A309105A105B1055E
:1006E00014F4C5E0D0E0AC01BD014A5051096109E4
:1006F00071094A3551056105710510F4C4E0D0E077
:10070000AC01BD0144565109610971094438534097
:100710006105710510F4C3E0D0E0AC01BD01485E95
:10072000534061097109483253426105710510F463
:10073000C2E0D0E080519742A109B10980399F45BC
:10074000A140B10510F4C1E0D0E020E030E44CE17C
:1007500056E4C701B6013BD78823ECF020E030E037
:1007600040E251E4C701B60132D718160CF090C030
:10077000312C20E030E040E251E4C701B601DCD585
:100780006B017C01339420E030E040E251E41FD75C
:1007900018167CF37EC02AE037ED43E25CE3C70124
:1007A000B601C6D58823FCF420E030E040E85FE3E2
:1007B000C701B601BDD58823C4F4312C02C0C5E001
:1007C000D0E020E030E040E251E4C701B60103D7B9
:1007D0006B017C013A9420E030E040E85FE3A8D56B
:1007E00088237CF303C0312C01C0312CC701B60132
:1007F0000BD62B013C0120E030E0A801D5DE4B01F7
:100800005C01209741F1C301B20131D69B01AC01DB
:10081000C701B60128D56B017C01F801E80DF91D6F
:100820008EE28083BE010D2E000C880B990B1FD623
:100830009B01AC0160E070E080E291E437D72FEFDC
:10084000821A920A800E911EA7019601C4D6DCD5A9
:100850009E01A401A9DE432D622DC80160DD3CC0CC
:10086000C701B601D1D54B015C0101D69B01AC019A
:10087000C701B601F8D46B017C0120E030E0A8018B
:10088000C501B40191DE4B015C01C5E0D0E0C5CFEC
:10089000312C2AE037ED43E25CE3C701B60148D5CD
:1008A00088237CF0DDCFC701B601AED52B013C011A
:1008B00020E030E0A80178DE4B015C01C5E0D0E02B
:1008C000A2CF20E030E040E85FE3C701B60130D5B9
:1008D00088230CF474CFE7CFDF91CF911F910F9154
:1008E000FF90EF90DF90CF90BF90AF909F908F9050
:1008F0007F906F905F904F903F902F9008954F9210
:100900005F926F927F92AF92BF92CF92DF92EF92FF
:10091000FF920F931F93CF93DF93CDB7DEB7299745
:100920000FB6F894DEBF0FBECDBF10E201C011506C
:1009300087E0A5DC811103C01111F9CF3DC111235E
:1009400009F43AC180E0D2DC80937D0080917D0083
:10095000823419F118F4813441F02FC1833409F441
:10096000C2C0843409F4D4C028C109E710E00F2EB6
:10097000F1E7EF2EF0E0FF2EF02D80E0B7DCD8019C
:100980008E938D01EA16FB06C1F781E0AFDC809300
:10099000640081E080936A0010C180E0A7DCC82E6B
:1009A000D12CE12CF12CC0926D00D0926E00E0921F
:1009B0006F00F092700080E099DCFE2CED2CDC2CB6
:1009C000CC24C80ED11CE11CF11CC0926D00D09249
:1009D0006E00E0926F00F092700080E087DCFE2CE9
:1009E000ED2CDC2CCC24C80ED11CE11CF11CC092D7
:1009F0006D00D0926E00E0926F00F092700081E086
:100A000075DCFE2CED2CDC2CCC24C80ED11CE11C9A
:100A1000F11CFF205CF0C0926D00D0926E00E0925D
:100A20006F00F0927000BBE2B98712C0F094E094BE
:100A3000D094C094C11CD11CE11CF11CC0926D006B
:100A4000D0926E00E0926F00F0927000EDE2E987C4
:100A50008E010F5F1F4F7E01F9E0EF0EF11CF801D0
:100A60001192EE15FF05E1F760916D0070916E0037
:100A700080916F00909170005701C12CD12C0F2EE6
:100A8000FAE04F2E512C612C712CF02DA301920114
:100A900092D7605DD5016E935D01BFEFCB1ADB0A83
:100AA000622F732F842F952F161617061806190616
:100AB0006CF360936D0070936E0080936F00909361
:100AC0007000E985ED3209F081C0FE01EC19FD09E5
:100AD0008DE280877BC0D8018D918D018193AE1509
:100AE000BF05C9F76AC009E710E00F2EF1E7EF2E46
:100AF000F0E0FF2EF02D80E0F9DBF80182938F010A
:100B0000EE15FF05C1F781E0F1DB8093640055C06D
:100B1000EEE7F0E088E890E01192E817F907E1F7D6
:100B200005E610E010936C0000936B0080E0DEDBC4
:100B3000D8018C93E0906B00F0906C00C701019697
:100B400090936C0080936B0080E0D0DBF701818391
:100B5000E0906B00F0906C00C701019690936C00E0
:100B600080936B0080E0C2DBD70111968C93E090FC
:100B70006B00F0906C00C701019690936C0080931D
:100B80006B0081E0B3DBF701818310939300009346
:100B90009200D8016D917D918D919C91609365003B
:100BA00070936600809367009093680028E030E0BF
:100BB0004EE750E051DD01C07CDB60916D0070912B
:100BC0006E0080916F009091700003C0E1E7F0E04B
:100BD00082CF29960FB6F894DEBF0FBECDBFDF914E
:100BE000CF911F910F91FF90EF90DF90CF90BF902A
:100BF000AF907F906F905F904F9008951F920F92EB
:100C00000FB60F9211248F938BB3886F8BBB88B371
:100C1000896188BB8F910F900FBE0F901F90189520
:100C2000E0919000F0919100EF58FF4FE0818E2FFE
:100C300090E0FC01BD97ED38F10508F094C0ED5E41
:100C4000FF4F099488B3867E88BB8BB3877A8BBBB2
:100C50008AC0C098DE9887C088B38E7E88BB8BB36D
:100C600087768BBB80C088B38E7E88BB8BB38F7238
:100C70008BBB79C088B3867F88BB8BB38F738BBBEC
:100C800072C088B3877E88BB8BB38F728BBB6BC0FF
:100C9000C3988BB387728BBB66C088B38E7E88BBCC
:100CA000DE9861C088B3867E88BB8BB387728BBBAE
:100CB0005AC088B3867E88BB8BB38F738BBB53C0FF
:100CC000DF9851C088B3877E88BB8BB387768BBB98
:100CD0004AC088B3867E88BB8BB3877A8BBBDD988E
:100CE00042C0C098DE98DD983EC088B38E7E88BB37
:100CF0008BB387768BBBDD9836C088B38E7E88BB7E
:100D00008BB38F728BBBDD982EC088B3867F88BB78
:100D10008BB38F738BBBDD9826C088B3877E88BB6F
:100D20008BB38F728BBBDD981EC0C3988BB3877259
:100D30008BBBDD9818C088B38E7E88BBDE98DD98AB
:100D400012C088B3867E88BB8BB387728BBBDD985D
:100D50000AC088B3867E88BB8BB38F738BBBDD984C
:100D600002C0DF98DD9880919000909191000196EB
:100D700090939100809390000895809190009091BD
:100D8000910087709078992324F40197886F9F6F62
:100D900001969093910080939000809190009091A3
:100DA0009100892B31F484E090E09093910080933E
:100DB000900088B3897988BB8BB3886F8BBB88B36D
:100DC000896188BB80919000909191008530910558
:100DD00061F01CF4049739F00DC08630910539F0AC
:100DE000079739F007C0C59A05C0C29A03C0C19AD7
:100DF00001C0C69A15DF08951F920F920FB60F9289
:100E000011242F933F934F935F936F937F938F930F
:100E10009F93AF93BF93CF93DF93EF93FF938FE7AE
:100E200084BB8FEF82BFA9DF809194008F5F809396
:100E3000940080919400823009F461DD80919400E7
:100E40008430E1F410929400C0E201C0C15088E007
:100E500016DA811103C0C111F9CF10C0CC2371F093
:100E6000C1E7D0E060E08B8132DA60E08A812FDA7E
:100E700060E089812CDA61E0888129DAFF91EF91C5
:100E8000DF91CF91BF91AF919F918F917F916F91A2
:100E90005F914F913F912F910F900FBE0F901F9038
:100EA0001895CF92DF92EF92FF920F931F93CF93FB
:100EB000FC019C01285F3F4F60E070E0CB01CBE27A
:100EC0004191442309F44DC04D3209F449C04423F3
:100ED0001CF5DC01CB01880F991FAA1FBB1F6C01F9
:100EE0007D01CC0CDD1CEE1CFF1CCC0CDD1CEE1CB3
:100EF000FF1CC80ED91EEA1EFB1E4F77842F90E000
:100F0000C097092E000CAA0BBB0BBC01CD016C0DC8
:100F10007D1D8E1D9F1D25C0DC01CB01880F991FF3
:100F2000AA1FBB1F6C017D01CC0CDD1CEE1CFF1C3D
:100F3000CC0CDD1CEE1CFF1C8C0D9D1DAE1DBF1DC1
:100F400050E040535109052E000C660B770B7A01D7
:100F50008B01E80EF91E0A1F1B1FC801B70101C053
:100F6000CDE2E217F30709F0ABCFCD3239F490951B
:100F70008095709561957F4F8F4F9F4FCF911F91B7
:100F80000F91FF90EF90DF90CF900895A89584B7D0
:100F9000877F84BF81B5886181BD11BC85B78F7B98
:100FA00085BF1ABA8FEF8BBB17BA88BB889A61B717
:100FB00080916000909161000397D1D6009160000C
:100FC00010916100C8010297C2D6C82F80EF8C0F24
:100FD000803E30F4C8010197BAD6C81301C0C1BF22
:100FE00010929100109290008AB3886F8ABB87B3E9
:100FF0008F6787BB88B3897988BB8BB3886F8BBBBE
:1010000088B3896188BBAF9A81E082BB13BA8FE74E
:1010100084BB8FEF82BF89B7826189BF1092940031
:10102000789409D986E02BD98823E1F381E229C09D
:1010300061E08EE74CD981E083BF0F2EFDE62F2EB5
:10104000F0E03F2EF02D0EE710E00F2EFEE8CF2E41
:10105000F0E0DF2EF02D0F2EF9E7AF2EF0E0BF2EDF
:10106000F02DC5E8D0E055245394612C0F2EF5E601
:101070008F2EF0E09F2EF02D0F2EFEE27F2EF02D12
:1010800008C0C1E0C80F60E022D98C2FCE37C9F765
:10109000CFCF809164008823E1F3109264008091A7
:1010A0007D00813439F08334A1F780917100882369
:1010B000CCF5CFC081E790E0F4DE60936D007093D3
:1010C0006E0080936F009093700086E0D8D88823DC
:1010D000E1F30F2EF8E1EF2EF12CF02D05C061E0C9
:1010E000F1018081F4D8D5CF80916D0090916E0090
:1010F000A0916F00B09170000E2C04C0B595A7951B
:10110000979587950A94D2F760E0E1D8F8E0EF1A56
:10111000F10851F7E4CFAE16BF0631F48068809332
:10112000780097C0E2E7F0E081918823A4F791C0AE
:101130001192CE16DF06E1F7E1E7F0E0AEE7B0E0AE
:1011400081918D93AE16BF06D9F706C08181819338
:101150001082EC17FD07D1F7F80180818823B1F3E5
:1011600010928F0010928E0088230CF475C0EFE768
:10117000F0E081E090E0219122232CF001968A306A
:101180009105C9F721C0AC014F5F5F4F50938F00AD
:1011900040938E0041155105B9F04930510554F482
:1011A000E7E8F0E09A0122583F4F82918183E217ED
:1011B000F307D9F7FA01E258FF4F7082FA01E358BA
:1011C000FF4F90819F779083C80153D4609365004F
:1011D00070936600809367009093680020E030E091
:1011E000A8013ADA90926C0080926B0086E047D8B2
:1011F0008823E1F3E0916B00F0916C0060E0808166
:1012000066D8E0916B00F0916C00CF01019690934D
:101210006C0080936B0060E0818159D8E0916B0095
:10122000F0916C00CF01019690936C0080936B005D
:1012300060E081814CD8E0916B00F0916C00CF01AF
:10124000019690936C0080936B0061E081813FD8A0
:1012500020CFEEE7F0E06CCF50928E0060928F00CE
:10126000452D562D9DCF5058BB27AA270ED075C1AE
:1012700066D130F06BD120F031F49F3F11F41EF4B1
:101280005BC10EF4E095E7FB51C1E92F77D180F304
:10129000BA17620773078407950718F071F49EF573
:1012A0008FC10EF4E0950B2EBA2FA02D0B01B901C2
:1012B00090010C01CA01A0011124FF27591B99F0CC
:1012C000593F50F4503E68F11A16F040A22F232FD8
:1012D000342F4427585FF3CF469537952795A79528
:1012E000F0405395C9F77EF41F16BA0B620B730BCF
:1012F000840BBAF09150A1F0FF0FBB1F661F771F40
:10130000881FC2F70EC0BA0F621F731F841F48F4F4
:10131000879577956795B795F7959E3F08F0B3CF7A
:101320009395880F08F09927EE0F97958795089564
:10133000D9D008F481E008950CD00FC107D140F056
:10134000FED030F021F45F3F19F0F0C0511139C1E7
:10135000F3C014D198F39923C9F35523B1F3951B26
:10136000550BBB27AA2762177307840738F09F5FC6
:101370005F4F220F331F441FAA1FA9F333D00E2E35
:101380003AF0E0E830D091505040E695001CCAF7A2
:1013900029D0FE2F27D0660F771F881FBB1F261767
:1013A00037074807AB07B0E809F0BB0B802DBF013A
:1013B000FF2793585F4F2AF09E3F510568F0B6C053
:1013C00000C15F3FECF3983EDCF386957795679517
:1013D000B795F7959F5FC9F7880F911D96958795EB
:1013E00097F90895E1E0660F771F881FBB1F62170A
:1013F00073078407BA0720F0621B730B840BBA0BC8
:10140000EE1F88F7E095089504D06894B111D9C013
:101410000895BCD088F09F5790F0B92F9927B75105
:10142000A0F0D1F0660F771F881F991F1AF0BA95A8
:10143000C9F712C0B13081F0C3D0B1E00895C0C087
:10144000672F782F8827B85F39F0B93FCCF386959E
:1014500077956795B395D9F73EF4909580957095FB
:1014600061957F4F8F4F9F4F0895E89409C097FB78
:101470003EF490958095709561957F4F8F4F9F4F6B
:101480009923A9F0F92F96E9BB279395F6958795AF
:1014900077956795B795F111F8CFFAF4BB0F11F472
:1014A00060FF1BC06F5F7F4F8F4F9F4F16C0882319
:1014B00011F096E911C0772321F09EE8872F762F4F
:1014C00005C0662371F096E8862F70E060E02AF090
:1014D0009A95660F771F881FDAF7880F969587957C
:1014E00097F90895990F0008550FAA0BE0E8FEEF51
:1014F00016161706E807F907C0F012161306E407D8
:10150000F50798F0621B730B840B950B39F40A26D0
:1015100061F0232B242B252B21F408950A2609F4AE
:10152000A140A6958FEF811D811D089597F99F67B2
:1015300080E870E060E008959FEF80EC089500245B
:101540000A941616170618060906089500240A9428
:1015500012161306140605060895092E0394000CAE
:1015600011F4882352F0BB0F40F4BF2B11F460FF3D
:1015700004C06F5F7F4F8F4F9F4F089557FD905866
:10158000440F551F59F05F3F71F04795880F97FB47
:10159000991F61F09F3F79F0879508951216130601
:1015A0001406551FF2CF4695F1DF08C01616170630
:1015B0001806991FF1CF8695710561050894089565
:1015C000E894BB2766277727CB0197F908958ADF30
:1015D00008F48FEF08950AD0C0CFB1DF28F0B6DF4E
:1015E00018F0952309F0A2CFA7CFEBCFC7DFA8F360
:1015F0009923D9F35523C9F3950F50E0551FAA2716
:10160000EE27FF27BB2700240894679520F4E20FFC
:10161000F31FB41F0A1E220F331F441FAA1F669513
:10162000A9F7779530F4F30FB41F0A1E121E08F4C1
:101630006395330F441FAA1F221F769599F787954C
:1016400020F4B40F0A1E121E631F440FAA1F221F8C
:10165000331F8695A9F7862F712D602D11249F5772
:1016600050408AF0E1F088234AF0EE0FFF1FBB1FC5
:10167000661F771F881F91505040A9F79E3F510564
:1016800070F054CF9ECF5F3FECF3983EDCF386952D
:1016900077956795B795F795E7959F5FC1F7FE2B0F
:1016A000880F911D9695879597F90895FA01EE0F89
:1016B000FF1F30962105310599F16115710561F41F
:1016C0008038BFE39B0749F168949038810561F049
:1016D0008038BFEF9B0741F0992342F5FF3FE105BA
:1016E0003105210511F1E8940894E795D901AA2361
:1016F00029F4AB2FBE2FF85FD0F310C0FF5F70F45A
:10170000A695E0F7F73950F019F0FF3A38F49F77D3
:101710009F930CD00F9007FC905808953EF00CCF8B
:1017200060E070E080E89FE308954FE79F775F9364
:101730004F933F932F939ED02F913F914F915F9165
:101740004ADF05C019F40EF0F1CE3ACFF5CE1EDF18
:10175000C8F39638C0F707F80F92E8942BE33AEAFB
:1017600048EB5FE745DF0F920F920F924DB75EB7E0
:101770000F92C0D0E0E4F1E016D04F915F91EF916D
:10178000FF91E595EE1FFF1F49F0FE57E0684427E3
:10179000EE0F441FFA95E1F74195550B32D00F90AB
:1017A00007FE26C00895DF93CF931F930F93FF92F8
:1017B000EF92DF927B018C01689405C0DA2EEF0175
:1017C00015DFFE01E894A59125913591459155913C
:1017D000AEF3EF015ADDFE019701A801DA9479F723
:1017E000DF90EF90FF900F911F91CF91DF910895BF
:1017F0009B01AC0160E070E080E89FE39DCD96CE58
:10180000ACC0C4DEE8F39923D9F3940F511DBBF3A8
:101810009150504094F059F0882332F0660F771FB2
:10182000881F91505040C1F79E3F510544F7880FE3
:10183000911D9695879597F908955F3FACF0983E76
:101840009CF0BB27869577956795B79508F4B160AE
:101850009395C1F7BB0F58F711F460FFE8CF6F5FA6
:101860007F4F8F4F9F4FE3CFACCE0EF076C064CE4C
:1018700068945CCE8BDEC8F39923D1F3C6F3DF9373
:10188000CF931F930F93FF92C92FDD2788232AF050
:101890002197660F771F881FDAF720E030E040E8D5
:1018A0005FEB9FE3883920F0803E30F021968F7700
:1018B000DBDCE8E6F1E003C0D7DCE5E9F1E073DF6B
:1018C0008B01BE01EC01FB2E6F5771097595771FD7
:1018D000880B990BCCDD28E132E741E35FE386DE3C
:1018E000AF2D9801AE01FF900F911F91CF91DF9125
:1018F000CCDC33CEFA01DC01AA0FBB1F9B01AC018B
:10190000BF5728F422273327442750781FC0B751E8
:1019100088F4AB2F0024469537952795011CA39595
:10192000D2F3002069F0220F331F441FB395DAF37E
:101930000DD099CC61307105A0E88A07B94630F422
:101940009B01AC016627772788279078309621F095
:10195000208331834283538308959F3F31F0915018
:1019600020F4879577956795B795880F911D969583
:10197000879597F9089587FB082E062687FD8195A0
:1019800067FD619534D00EF4919507FC819508951B
:1019900097FB072E16F4009406D077FD08D033D0BD
:1019A00007FC05D03EF4909581959F4F0895709562
:1019B00061957F4F0895052E97FB16F400940FD084
:1019C00057FD05D034D007FC02D046F408C050952E
:1019D0004095309521953F4F4F4F5F4F089590951B
:1019E0008095709561957F4F8F4F9F4F0895991BFC
:1019F00079E004C0991F961708F0961B881F7A9506
:101A0000C9F780950895AA1BBB1B51E107C0AA1F07
:101A1000BB1FA617B70710F0A61BB70B881F991F8F
:101A20005A95A9F780959095BC01CD010895A1E242
:101A30001A2EAA1BBB1BFD010DC0AA1FBB1FEE1F48
:101A4000FF1FA217B307E407F50720F0A21BB30B93
:101A5000E40BF50B661F771F881F991F1A9469F70F
:101A600060957095809590959B01AC01BD01CF016B
:101A700008956627772700C0A0E0B0E0E1E4FDE02C
:101A800082C1EC017B016115710519F0FB019183A5
:101A900080836E01FFEFCF1ADF0A0881802F90E06C
:101AA00033D1892B11F0E601F4CF0D3239F46E01F8
:101AB00032E0C30ED11C098111E008C00B3229F4B9
:101AC0006E0152E0C50ED11C098110E0E60121979C
:101AD00043E050E06AEC71E0CE011ED1892BB9F4ED
:101AE000239645E050E065EC71E0CE0115D1892BDD
:101AF00009F42596E114F10419F0F701D183C083AC
:101B00001111F5C060E070E080E89FE7F9C043E0A4
:101B100050E062EC71E0CE01FFD0892B51F4E1146A
:101B2000F10409F4E9C0C6010296F70191838083AC
:101B3000E3C060E070E0CB01C0E0D0E0F60130ED42
:101B4000300F3A3078F5212F2260A12FA87012FFB4
:101B500004C0A1112DC021962BC0A11121974B01CA
:101B60005C01B2E0880C991CAA1CBB1CBA95D1F789
:101B7000AB01BC01480D591D6A1D7B1D440F551F4B
:101B8000661F771FCB01BA01630F711D811D911D67
:101B9000683939E97307830739E1930748F0212F42
:101BA000266006C03E3F51F413FD40C0212F28603F
:101BB0005FEFC51AD50A0081122FC0CF202F2F7DCD
:101BC0002534A1F540814D3211F4106106C04B322D
:101BD00021F0319621E030E004C04181329622E0CC
:101BE00030E040534A3018F0E21BF30B1FC020E0F6
:101BF00030E020385CE035075CF4D901AA0FBB1F48
:101C0000AA0FBB1F2A0F3B1F220F331F240F311DAA
:101C10003196DF0111974C9140534A3050F314FF35
:101C200003C0319521953109C20FD31F11FF09C09F
:101C3000E114F10431F09F0121503109F7013183A2
:101C4000208313DC212F2370233019F04B015C011A
:101C500006C04B015C01B7FAB094B7F8B09420E02D
:101C600030E0A901C501B40163DB882309F43CC05D
:101C7000D7FF06C0D195C195D10901EE11E002C090
:101C800009EF11E06801F8E1CF1AD10890E2E92EDE
:101C9000F12CCE15DF056CF0F801259135914591B9
:101CA0005491C501B40197DC4B015C01CE19DF09E9
:101CB000F0CF04501109F594E7940C151D0549F770
:101CC0008A2D880F8B2D881F8F3F41F020E030E058
:101CD000A901C501B4012CDB811106C082E290E0AC
:101CE0009093960080939500C501B40109C060E00F
:101CF00070E080E89FEF04C060E070E080EC9FE758
:101D0000CDB7DEB7ECE05BC091111EC0803219F098
:101D100089508550D0F70895FB01DC0141505040B7
:101D200088F08D9181341CF08B350CF4805E6591C8
:101D300061341CF06B350CF4605E861B611171F32D
:101D4000990B0895881BFCCF992788270895E1995E
:101D5000FECF9FBB8EBBE09A99278DB30895262FA7
:101D6000E199FECF1CBA9FBB8EBB2DBB0FB6F8947A
:101D7000E29AE19A0FBE019608952F923F924F92F8
:101D80005F926F927F928F929F92AF92BF92CF920B
:101D9000DF92EF92FF920F931F93CF93DF93CDB714
:101DA000DEB7CA1BDB0B0FB6F894DEBF0FBECDBF8C
:101DB00009942A88398848885F846E847D848C845D
:101DC0009B84AA84B984C884DF80EE80FD800C8166
:101DD0001B81AA81B981CE0FD11D0FB6F894DEBF49
:0C1DE0000FBECDBFED010895F894FFCFB9
:041DEC000002FEF003
:00000001FF
