S01200005457495F6D61737465722E7372656333
S113000071C08BC08AC089C088C087C03AC585C00A
S113001084C083C082C081C080C07FC0A4C67DC0AC
S11300207CC07BC07AC007634236B79BD8A71A3915
S1130030685618AEBAAB558C1D3CB7CC5763BD6D32
S1130040EDFD753EF6177231BF000000803F0800D9
S11300500000BE922449123EABAAAA2ABECDCCCC43
S11300604C3E00000080BEABAAAAAA3E00000000DD
S1130070BF000000803F0000000000084178D3BBAF
S11300804387D1133D190E3CC3BD4282AD2B3E685C
S1130090EC8276BED98FE1A93E4C80EFFFBE01C44D
S11300A0FF7F3F00000000004E414E494E49545925
S11300B0494E46CDCCCC3D0AD7233C17B7D138772F
S11300C0CC2B329595E6241FB14F0A000020410045
S11300D000C84200401C4620BCBE4CCA1B0E5AAE8F
S11300E0C59D740011241FBECFE5D2E0DEBFCDBF95
S11300F010E0A0E6B0E0E2E4FDE102C005900D925C
S1130100A436B107D9F720E0A4E6B0E001C01D92FF
S1130110AA3AB207E1F7A6D612CE72CFD89ADA9AE3
S1130120D29AD09A8FEF8FB98AE28DB980EF8EB9C7
S113013008958EB98BE295E09A95F1F700008DB998
S1130140CA9BFECF92E09A95F1F700C08DB9769BD9
S1130150F2CF85E08A95F1F700008FB19FEF9FB948
S1130160D09A0895DA9ACA9BFECF92E09A95F1F755
S113017000C0D89892E09A95F1F700C0DA98D89A1E
S1130180DA988FB980916300D4DFD09880916200AF
S1130190D0DF809581700895D898DA9ACA9BFECFF3
S11301A082E08A95F1F700C0D89A85E08A95F1F744
S11301B000000895CF93C62FDA988FB98091630019
S11301C0B8DFD09880916200B4DFCC2311F0CF91D6
S11301D0E3CFCF910895CF93DF93C82FD098809128
S11301E06300A7DFD82FCC2319F08FEF8FB901C09C
S11301F01FB8809162009DDFC111CEDF8D2FDF918A
S1130200CF910895EF92FF920F931F93CF93DF93B3
S1130210FC0180819F01215F3F4F893359F4D9014B
S11302208E9111968C931197AE17BF07C9F780E38F
S113023080834F5F7F01D9018C91882339F080330B
S113024021F089018FE090E00CC01C921197AE1749
S1130250BF0791F7F6CF019701501109009709F4F0
S113026040C0D8015C915523B1F35E3239F4DF010B
S1130270A80FB91F50E311965C9333C085309105E4
S113028084F1553370F1DC011197E80118828F0174
S11302900A0F1B1FE80158815E3209F411978F0180
S11302A00A0F1B1FE80188818F5F88838F010A0F63
S11302B01B1FE80188818A33A1F4CD010197E8016D
S11302C018828F01080F191FE80158815E3209F462
S11302D00197DF01A80FB91F5C915F5F5C93DC019C
S11302E0E5CF809181008E3221F480EB80938100F0
S11302F01EC0DF0180E090E05D915E3231F0019636
S113030080319105C9F780E090E0DC011197AE0FD0
S1130310BF1F5C9150685C93DF01A80FB91F2A17B7
S11303203B0729F011968C9111978D93F8CF80811A
S1130330803349F44150DF0111968C9111978D93CC
S11303402A173B07C9F78181803829F480818068A6
S1130350808380E38183808187FF05C0818181114F
S113036002C080E381836D3251F4D9018E911196DC
S11303708C931197EA17FB07C9F78DE2808341112B
S113038020C0DF0160E070E08D91811105C088E03C
S113039090E0861B970B10C0CB010196803191052C
S11303A0B1F3BC01F1CF5E9111965C931197AE1736
S11303B0BF07C9F710820197009709F455C0D90106
S11303C0F2CF4A3024F4473F24F082E003C083E0B4
S11303D001C084E099E0940F993008F483E0A7E920
S11303E0B0E027EA30E0E70199917E019D932A1756
S11303F03B07C9F7833041F0843099F080E3840FE0
S1130400878385E4868330C014163CF52AE0842F64
S1130410622F68DA905D9783622F64DA905D968329
S113042021C0C42F042E000CDD0B882799278C1BB8
S11304309D0B2AE030E0B90162DA805D8783CE014A
S113044066EF7FEF5CDACB01B90159DA805D868310
S11304508DE2858385E4848307C080E3841B8783DE
S11304608DE2868385E4858381E080936D00842F0B
S1130470DF91CF911F910F91FF90EF9008959B0111
S113048021503109FC01E60FF71FDC01AD01481BC7
S1130490590B421753073CF44C9152915D9340839E
S11304A021503109F3CF08958F929F92AF92BF925A
S11304B0CF92DF92EF92FF920F931F93CF93DF932C
S11304C08A0169017A012AE0822E912CA12CB12C97
S11304D0E701C01BD10B611571058105910551F030
S11304E0A50194011FDA605DF70161937F01B901F1
S11304F0CA01EECFF801EC0FFD1F80E3CC15DD053A
S11305001CF421968193FACFBE01C801B8DFF8012B
S1130510EC0FFD1F1082BE01DD0F880B990BDF91DC
S1130520CF911F910F91FF90EF90DF90CF90BF90EC
S1130530AF909F908F9008952F923F924F925F9229
S11305406F927F928F929F92AF92BF92CF92DF92DF
S1130550EF92FF920F931F93CF93DF936B017C0174
S11305608A0120E030E0A90164D687FF07C0F7FACA
S1130570F094F7F8F0949DE2292E02C08BE2282E25
S1130580F801C80140961192E817F907E1F7C7018D
S1130590B601BBD66A307105810591051CF4C5E02E
S11305A0D0E002C0C0E0D0E04B015C012AE0821A36
S11305B09108A108B1082AE582169104A104B104A6
S11305C010F4C4E0D0E04B015C0124E6821A9108E7
S11305D0A108B10824E8821623E09206A104B1041C
S11305E010F4C3E0D0E0DC01CB01885E9340A109A4
S11305F0B10988329342A105B10510F4C2E0D0E0FC
S113060020E030E44CE156E4C701B60161D787FD30
S113061015C0312C20E030E040E251E4C701B601BE
S113062057D787FD16C020E030E040E251E4C7010F
S1130630B60103D66B017C013394ECCF2AE037ED8D
S113064043E25CE3C701B601F4D5312C87FF20C037
S11306500BC02AE037ED43E25CE3C701B601E9D5FC
S113066087FF61C0C5E0D0E020E030E040E85FE310
S1130670C701B601DED587FF0BC020E030E040E2C1
S113068051E4C701B60128D76B017C013A94ECCF41
S1130690C701B6013AD62B013C0120E030E0A801A5
S11306A003DF4B015C01209741F1C301B20160D625
S11306B09B01AC01C701B60157D56B017C01F80160
S11306C0E80DF91D8EE28083BE010D2E000C880B0F
S11306D0990B4ED69B01AC0160E070E080E291E49E
S11306E066D72FEF821A920A800E911EA7019601F7
S11306F0F3D60BD69E01A401D7DE432D622DC8018B
S1130700DF91CF911F910F91FF90EF90DF90CF90E9
S1130710BF90AF909F908F907F906F905F904F901D
S11307203F902F906FCDC701B601EFD54B015C010F
S11307301FD69B01AC01C701B60116D56B017C0124
S113074020E030E0A801C501B401AEDE4B015C013C
S1130750C5E0D0E0B4CF4F925F926F927F928F92B8
S11307609F92AF92BF92CF92DF92EF92FF920F933C
S11307701F93CF93DF93CDB7DEB728970FB6F894C6
S1130780DEBF0FBECDBF10E287E0ECDC811105C0F7
S1130790112309F448C11150F7CF112309F443C1BF
S11307A080E019DD8093800010926D0080918000BC
S11307B08234E9F050F4813409F04CC10CE710E0C4
S11307C0E4E7EE2EE0E0FE2E09C0833409F4B3C062
S11307D0843409F03FC1E1E8F0E0BDC080E0FBDC17
S11307E0D8018E938D01EA16FB06C1F7AFC080E0F5
S11307F0F2DCC82ED12CE12CF12CC0927000D092E6
S11308007100E0927200F092730080E0E4DCFE2C50
S1130810ED2CDC2CCC24C80ED11CE11CF11CC092A4
S11308207000D0927100E0927200F092730080E048
S1130830D2DCFE2CED2CDC2CCC24C80ED11CE11C0B
S1130840F11CC0927000D0927100E0927200F0929C
S1130850730081E0C0DCFE2CED2CDC2CCC24A70141
S11308609601280F311D411D511DDA01C90157FDA3
S11308700BC020937000309371004093720050932A
S113088073004BE2D42E11C0B095A095909581953C
S11308909F4FAF4FBF4F8093700090937100A09310
S11308A07200B09373003DE2D32E8E010F5F1F4F91
S11308B07E0139E0E30EF11CF8011192EE15FF05FB
S11308C0E1F76091700070917100809172009091D5
S11308D073004701A12CB12C2AE0422E512C612C2B
S11308E0712CA30192011ED8605DD4016E934D0159
S11308F0BFEFAB1ABB0AB901CA01161617061806D0
S113090019067CF3609370007093710080937200F9
S113091090937300EDE2DE1204C0F801EA19FB09BA
S1130920D782E4E7F0E0D8018D918D018193AE1573
S1130930BF05C9F78FC00CE710E080E04CDCF8017C
S113094082938F01F0E004371F07B9F781E043DC9D
S1130950809364007FC0119220E0EB38F207D9F74E
S113096005E610E010936F0000936E0080E033DC26
S113097080936500E0906E00F0906F00C7010196CF
S113098090936F0080936E0080E025DCD701119670
S11309908C93E0906E00F0906F00C70101969093E5
S11309A06F0080936E0080E016DCF7018183E09095
S11309B06E00F0906F00C701019690936F008093D2
S11309C06E0081E008DCD70111968C931093960099
S11309D000939500609165007091660080916700B6
S11309E0909168006093650070936600809367003F
S11309F09093680041E850E028960FB6F894DEBF63
S1130A000FBECDBFDF91CF911F910F91FF90EF905B
S1130A10DF90CF90BF90AF909F908F907F906F901A
S1130A205F904F9089CD28960FB6F894DEBF0FBE25
S1130A30CDBFDF91CF911F910F91FF90EF90DF9089
S1130A40CF90BF90AF909F908F907F906F905F906A
S1130A504F90A2CB28960FB6F894DEBF0FBECDBF41
S1130A60DF91CF911F910F91FF90EF90DF90CF9086
S1130A70BF90AF909F908F907F906F905F904F90BA
S1130A8008951F920F920FB60F9211242F933F9344
S1130A904F935F936F937F938F939F93AF93BF9382
S1130AA0EF93FF9380EE84BB12BE8091A7008F5F0B
S1130AB08093A7008091A700843119F51092A700B4
S1130AC080916D00813029F013BE45DE81E083BF43
S1130AD018C0C99B0BC0E1E8F0E0A4E7B0E0819145
S1130AE08D9380E0E938F807D1F7EECFE7E9F0E03D
S1130AF0A4E7B0E081918D9380E0EF39F807D1F756
S1130B00E3CF8091A7008A3009F580E280936A00E0
S1130B1088E028DB811106C080916A0080916A0018
S1130B208150F4CF80916A00882381F060E0809145
S1130B30770040DB60E0809176003CDB60E08091F0
S1130B40750038DB61E08091740034DB88B3897907
S1130B5088BB8BB3886F8BBB88B3896188BBFF91DB
S1130B60EF91BF91AF919F918F917F916F915F9121
S1130B704F913F912F910F900FBE0F901F9018959A
S1130B80E0919300F0919400EC58FF4F80818534FC
S1130B9009F48AC090F5843309F46CC0C8F4813335
S1130BA009F45FC060F48D3209F47CC0803309F02D
S1130BB0A2C088B3867E88BB8BB3877A59C0823340
S1130BC009F451C0833309F096C088B38E7E57C0B0
S1130BD0873309F458C040F4853309F44EC0863392
S1130BE009F089C0C39857C0883309F451C08933C8
S1130BF009F081C088B3867E51C0833B09F45FC08D
S1130C00C0F4803B09F453C040F4853609F44CC069
S1130C108D3A09F070C0DF986DC0813B09F44DC076
S1130C20823B09F068C088B38E7E88BB8BB387761D
S1130C3060C0863B09F44DC048F4843B09F442C0CB
S1130C40853B09F058C088B3877E3FC0883B09F4D0
S1130C5047C008F440C0893B09F04DC088B3867E84
S1130C6045C0C09813C088B38E7E88BB8BB387768B
S1130C708BBB41C088B3867F11C088B3877E88BB95
S1130C808BB38F72F5CF88B38E7E88BBDE9833C06A
S1130C9088B3867E88BB8BB38772EACF88BB8BB35D
S1130CA08F73E6CFDF9827C088B3877EDECF88B303
S1130CB0867E88BB8BB3877A1CC0C0980FC088B36C
S1130CC08E7E03C088B3867F11C088BB8BB38F72BE
S1130CD010C0C39808C088B38E7E88BBDE980AC053
S1130CE088B3867E88BB8BB3877203C088BB8BB303
S1130CF08F738BBBDD988091930090919400019643
S1130D009093940080939300089580919300909120
S1130D10940068E070E0F3D590939400809393007E
S1130D208091930090919400892B31F484E090E0B9
S1130D3090939400809393008091930090919400F9
S1130D408530910561F024F4049761F4C59A0AC0D2
S1130D508630910531F0079729F4C69A03C0C29AE8
S1130D6001C0C19A0DCF1F920F920FB60F9211249A
S1130D702F933F934F935F936F937F938F939F939F
S1130D80AF93BF93EF93FF938091A70060916900A5
S1130D909DD5911101C0B9DFFF91EF91BF91AF9142
S1130DA09F918F917F916F915F914F913F912F917F
S1130DB00F900FBE0F901F901895CF92DF92EF9275
S1130DC0FF920F931F93CF93DF9300D01F92CDB761
S1130DD0DEB79B838A838C01085F1F4F60E070E05D
S1130DE0CB012BE22983EA81FB81F190FB83EA8327
S1130DF0FF20E9F0FDE2FF16C1F02AE030E040E018
S1130E0050E0F7FE04C049D52F2D2F7702C045D5F9
S1130E102F2D30E0205331096901330FEE08FF080C
S1130E206C0D7D1D8E1D9F1D02C02DE22983EA815C
S1130E30FB81E017F107B9F6F981FD3239F4909599
S1130E408095709561957F4F8F4F9F4F0F900F90B6
S1130E500F90DF91CF911F910F91FF90EF90DF9052
S1130E60CF900895A89584B7877F84BF81B58861A2
S1130E7081BD11BC85B78F7B85BF1ABA8FEF8BBB41
S1130E8017BA88BB889A61B780916000909161001D
S1130E90039710D70091600010916100C801029778
S1130EA001D7C82F80EF8C0F803E30F4C801019722
S1130EB0F9D6C81301C0C1BF1092940010929300D8
S1130EC08AB3886F8ABB87B38F6787BB88B38979F6
S1130ED088BB8BB3886F8BBB88B3896188BBAF9A9F
S1130EE084EE82BB13BA80EE84BB12BE89B78261E2
S1130EF089BFC0916000D09161002797CE01D2D6FE
S1130F00843029F0813019F061E0CE01D3D61092FB
S1130F10A70080916000909161000797C3D68093E9
S1130F206900789481E083BFC9990FC090916900EA
S1130F30913009F484E080936900609169008091A4
S1130F406000909161000797B5D613BEE7D880E2A0
S1130F5080936A0088E006D9811106C080916A00F6
S1130F6080916A008150F4CF80916A00882381F0D7
S1130F708091690060E01ED98091690060E01AD90F
S1130F808091690060E016D98091690061E012D90E
S1130F9081E083BFC5E6D0E08EE2F82E8091640044
S1130FA08823E1F31092640080918000813441F041
S1130FB08334A1F7E4E7F0E0DF0180E090E040C093
S1130FC084E790E0FADE6093700070937100809380
S1130FD072009093730086E0C5D88823E1F300E0A3
S1130FE010E00330110521F461E08091700017C016
S1130FF0C80168EF7FEF40D49C01285E3F4F809189
S1131000700090917100A0917200B091730004C0BF
S1131010B595A795979587952A95D2F760E0CAD894
S11310200F5F1F4F04301105E1F6B8CF87309105EB
S113103019F4206820937B0001968830910519F0FB
S11310402D9127FFF3CFA1E8B0E01D9280E0A139F4
S1131050B807D9F7A1E8B0E081918D9380E0EC372F
S1131060F807D1F78091810081110AC0E1E8F0E02E
S113107081818193108280E0E838F807C9F7F2CFC4
S11310801092920010929100E1E8F0E080E090E08C
S11310902191019627FD04C08A309105C9F704C047
S11310A0909392008093910080919100909192008E
S11310B00097A9F0EAE8F0E09F0121583040821738
S11310C093071CF422912183F7CFFC01EF57FF4FC4
S11310D0F082FC01E058FF4F80818F77808381E8A4
S11310E090E072D46093650070936600809367000B
S11310F09093680041E850E01FDAD0936F00C093EA
S11311006E0086E02FD88823E1F3E0916E00F09121
S11311106F0060E080814ED8E0916E00F0916F0026
S1131120CF01019690936F0080936E0060E08181FF
S113113041D8E0916E00F0916F00CF010196909339
S11311406F0080936E0060E0818134D8E0916E007E
S1131150F0916F00CF01019690936F0080936E0021
S113116061E0818127D81ACF5058BB27AA270ED017
S113117075C166D130F06BD120F031F49F3F11F48A
S11311801EF45BC10EF4E095E7FB51C1E92F77D162
S113119080F3BA17620773078407950718F071F490
S11311A09EF58FC10EF4E0950B2EBA2FA02D0B01E6
S11311B0B90190010C01CA01A0011124FF27591B98
S11311C099F0593F50F4503E68F11A16F040A22F9E
S11311D0232F342F4427585FF3CF4695379527950F
S11311E0A795F0405395C9F77EF41F16BA0B620B0E
S11311F0730B840BBAF09150A1F0FF0FBB1F661F55
S1131200771F881FC2F70EC0BA0F621F731F841F97
S113121048F4879577956795B795F7959E3F08F0BD
S1131220B3CF9395880F08F09927EE0F979587957C
S11312300895D9D008F481E008950CD00FC107D1E6
S113124040F0FED030F021F45F3F19F0F0C05111AE
S113125039C1F3C014D198F39923C9F35523B1F3D9
S1131260951B550BBB27AA2762177307840738F011
S11312709F5F5F4F220F331F441FAA1FA9F333D070
S11312800E2E3AF0E0E830D091505040E695001C24
S1131290CAF729D0FE2F27D0660F771F881FBB1FE0
S11312A0261737074807AB07B0E809F0BB0B802DBA
S11312B0BF01FF2793585F4F2AF09E3F510568F006
S11312C0B6C000C15F3FECF3983EDCF3869577959A
S11312D06795B795F7959F5FC9F7880F911D969508
S11312E0879597F90895E1E0660F771F881FBB1F64
S11312F0621773078407BA0720F0621B730B840B11
S1131300BA0BEE1F88F7E095089504D06894B111E4
S1131310D9C00895BCD088F09F5790F0B92F992771
S1131320B751A0F0D1F0660F771F881F991F1AF0EC
S1131330BA95C9F712C0B13081F0C3D0B1E00895B5
S1131340C0C0672F782F8827B85F39F0B93FCCF336
S1131350869577956795B395D9F73EF490958095E2
S1131360709561957F4F8F4F9F4F0895E89409C002
S113137097FB3EF490958095709561957F4F8F4FC4
S11313809F4F9923A9F0F92F96E9BB279395F695DA
S1131390879577956795B795F111F8CFFAF4BB0F58
S11313A011F460FF1BC06F5F7F4F8F4F9F4F16C0BC
S11313B0882311F096E911C0772321F09EE8872F46
S11313C0762F05C0662371F096E8862F70E060E002
S11313D02AF09A95660F771F881FDAF7880F96957B
S11313E0879597F90895990F0008550FAA0BE0E81F
S11313F0FEEF16161706E807F907C0F012161306D3
S1131400E407F50798F0621B730B840B950B39F412
S11314100A2661F0232B242B252B21F408950A2678
S113142009F4A140A6958FEF811D811D089597F9B8
S11314309F6780E870E060E008959FEF80EC089576
S113144000240A941616170618060906089500249F
S11314500A9412161306140605060895092E039419
S1131460000C11F4882352F0BB0F40F4BF2B11F48D
S113147060FF04C06F5F7F4F8F4F9F4F089557FDEC
S11314809058440F551F59F05F3F71F04795880FEE
S113149097FB991F61F09F3F79F087950895121685
S11314A013061406551FF2CF4695F1DF08C0161631
S11314B017061806991FF1CF8695710561050894E2
S11314C00895E894BB2766277727CB0197F90895F9
S11314D08ADF08F48FEF08950AD0C0CFB1DF28F077
S11314E0B6DF18F0952309F0A2CFA7CFEBCFC7DF63
S11314F0A8F39923D9F35523C9F3950F50E0551F49
S1131500AA27EE27FF27BB2700240894679520F419
S1131510E20FF31FB41F0A1E220F331F441FAA1F1A
S11315206695A9F7779530F4F30FB41F0A1E121EBF
S113153008F46395330F441FAA1F221F769599F769
S1131540879520F4B40F0A1E121E631F440FAA1FAE
S1131550221F331F8695A9F7862F712D602D112424
S11315609F5750408AF0E1F088234AF0EE0FFF1FA6
S1131570BB1F661F771F881F91505040A9F79E3FDD
S1131580510570F054CF9ECF5F3FECF3983EDCF3EF
S1131590869577956795B795F795E7959F5FC1F71A
S11315A0FE2B880F911D9695879597F90895FA015A
S11315B0EE0FFF1F30962105310599F16115710574
S11315C061F48038BFE39B0749F168949038810542
S11315D061F08038BFEF9B0741F0992342F5FF3F4C
S11315E0E1053105210511F1E8940894E795D90145
S11315F0AA2329F4AB2FBE2FF85FD0F310C0FF5FEE
S113160070F4A695E0F7F73950F019F0FF3A38F482
S11316109F779F930CD00F9007FC905808953EF04D
S11316200CCF60E070E080E89FE308954FE79F7778
S11316305F934F933F932F939ED02F913F914F9160
S11316405F914ADF05C019F40EF0F1CE3ACFF5CE22
S11316501EDFC8F39638C0F707F80F92E8942BE31F
S11316603AEA48EB5FE745DF0F920F920F924DB7CE
S11316705EB70F92C0D0E6E2F0E016D04F915F91D2
S1131680EF91FF91E595EE1FFF1F49F0FE57E068CB
S11316904427EE0F441FFA95E1F74195550B32D0DC
S11316A00F9007FE26C00895DF93CF931F930F93E7
S11316B0FF92EF92DF927B018C01689405C0DA2ED1
S11316C0EF0115DFFE01E894A5912591359145912F
S11316D05591AEF3EF015ADDFE019701A801DA94AA
S11316E079F7DF90EF90FF900F911F91CF91DF91E9
S11316F008959B01AC0160E070E080E89FE39DCD1C
S113170096CEACC0C4DEE8F39923D9F3940F511DEF
S1131710BBF39150504094F059F0882332F0660F97
S1131720771F881F91505040C1F79E3F510544F7E1
S1131730880F911D9695879597F908955F3FACF0B2
S1131740983E9CF0BB27869577956795B79508F4E6
S1131750B1609395C1F7BB0F58F711F460FFE8CF60
S11317606F5F7F4F8F4F9F4FE3CFACCE0EF076C0AD
S113177064CE68945CCE8BDEC8F39923D1F3C6F3B0
S1131780DF93CF931F930F93FF92C92FDD278823F5
S11317902AF02197660F771F881FDAF720E030E0E0
S11317A040E85FEB9FE3883920F0803E30F02196DB
S11317B08F77DBDCEEE4F0E003C0D7DCEBE7F0E0AE
S11317C073DF8B01BE01EC01FB2E6F577109759518
S11317D0771F880B990BCCDD28E132E741E35FE307
S11317E086DEAF2D9801AE01FF900F911F91CF912E
S11317F0DF91CCDC33CEFA01DC01AA0FBB1F9B01C5
S1131800AC01BF5728F422273327442750781FC040
S1131810B75188F4AB2F0024469537952795011CC2
S1131820A395D2F3002069F0220F331F441FB39510
S1131830DAF30DD099CC61307105A0E88A07B94676
S113184030F49B01AC01662777278827907830967F
S113185021F0208331834283538308959F3F31F0E5
S1131860915020F4879577956795B795880F911DCA
S11318709695879597F908950024552704C0080E76
S1131880591F880F991F009729F076956795B8F32B
S11318907105B9F7802D952F0895EE27FF27AA2704
S11318A0BB2708C0A20FB31FE41FF51F220F331F6D
S11318B0441F551F969587957795679598F37040C3
S11318C0A9F7009799F7BD01CF010895991B79E015
S11318D004C0991F961708F0961B881F7A95C9F7BC
S11318E08095089587FB082E062687FD819567FD60
S11318F06195ECDF0EF4919507FC8195089597FBB3
S1131900072E16F4009406D077FD08D027D007FCE4
S113191005D03EF4909581959F4F089570956195FB
S11319207F4F0895052E97FB16F400940FD057FDB2
S113193005D028D007FC02D046F408C05095409545
S1131940309521953F4F4F4F5F4F08959095809567
S1131950709561957F4F8F4F9F4F0895AA1BBB1BB6
S113196051E107C0AA1FBB1FA617B70710F0A61B9B
S1131970B70B881F991F5A95A9F780959095BC01BC
S1131980CD010895A1E21A2EAA1BBB1BFD010DC0B7
S1131990AA1FBB1FEE1FFF1FA217B307E407F5071B
S11319A020F0A21BB30BE40BF50B661F771F881FF7
S11319B0991F1A9469F760957095809590959B018D
S11319C0AC01BD01CF0108956627772700C0A0E0D0
S11319D0B0E0ECEEFCE082C1EC017B016115710525
S11319E019F0FB01918380836E01FFEFCF1ADF0AA8
S11319F00881802F90E033D1892B11F0E601F4CFD8
S1131A000D3239F46E0132E0C30ED11C098111E0AC
S1131A1008C00B3229F46E0152E0C50ED11C0981B5
S1131A2010E0E601219743E050E060EB70E0CE0166
S1131A301ED1892BB9F4239645E050E06BEA70E09F
S1131A40CE0115D1892B09F42596E114F10419F07E
S1131A50F701D183C0831111F5C060E070E080E824
S1131A609FE7F9C043E050E068EA70E0CE01FFD0A0
S1131A70892B51F4E114F10409F4E9C0C60102967A
S1131A80F70191838083E3C060E070E0CB01C0E0A4
S1131A90D0E0F60130ED300F3A3078F5212F226096
S1131AA0A12FA87012FF04C0A1112DC021962BC034
S1131AB0A11121974B015C01B2E0880C991CAA1C6E
S1131AC0BB1CBA95D1F7AB01BC01480D591D6A1D69
S1131AD07B1D440F551F661F771FCB01BA01630F8F
S1131AE0711D811D911D683939E97307830739E137
S1131AF0930748F0212F266006C03E3F51F413FDA2
S1131B0040C0212F28605FEFC51AD50A0081122F2B
S1131B10C0CF202F2F7D2534A1F540814D3211F403
S1131B20106106C04B3221F0319621E030E004C050
S1131B304181329622E030E040534A3018F0E21BF3
S1131B40F30B1FC020E030E020385CE035075CF484
S1131B50D901AA0FBB1FAA0FBB1F2A0F3B1F220FBD
S1131B60331F240F311D3196DF0111974C914053DF
S1131B704A3050F314FF03C0319521953109C20F47
S1131B80D31F11FF09C0E114F10431F09F0121506A
S1131B903109F70131832083E9DB212F23702330BE
S1131BA019F04B015C0106C04B015C01B7FAB0941B
S1131BB0B7F8B09420E030E0A901C501B40139DBE5
S1131BC0882309F43CC0D7FF06C0D195C195D1093B
S1131BD007EC10E002C00FED10E06801F8E1CF1A45
S1131BE0D10890E2E92EF12CCE15DF056CF0F80156
S1131BF02591359145915491C501B4016DDC4B019A
S1131C005C01CE19DF09F0CF04501109F594E79473
S1131C100C151D0549F78A2D880F8B2D881F8F3FC2
S1131C2041F020E030E0A901C501B40102DB8111DB
S1131C3006C082E290E09093A9008093A800C501B9
S1131C40B40109C060E070E080E89FEF04C060E088
S1131C5070E080EC9FE7CDB7DEB7ECE05BC091119C
S1131C601EC0803219F089508550D0F70895FB01C9
S1131C70DC014150504088F08D9181341CF08B354B
S1131C800CF4805E659161341CF06B350CF4605E7D
S1131C90861B611171F3990B0895881BFCCF99275A
S1131CA088270895E199FECF9FBB8EBBE09A9927C0
S1131CB08DB30895262FE199FECF1CBA9FBB8EBB2E
S1131CC02DBB0FB6F894E29AE19A0FBE01960895DF
S1131CD02F923F924F925F926F927F928F929F9238
S1131CE0AF92BF92CF92DF92EF92FF920F931F9326
S1131CF0CF93DF93CDB7DEB7CA1BDB0B0FB6F894D7
S1131D00DEBF0FBECDBF09942A88398848885F8416
S1131D106E847D848C849B84AA84B984C884DF8087
S1131D20EE80FD800C811B81AA81B981CE0FD11D6B
S1131D300FB6F894DEBF0FBECDBFED010895F89441
S1051D40FFCFCF
S1071D420002FEF0A9
S9030000FC
