:1000000012C02CC02BC02AC029C028C054C134C083
:100010004CC024C023C022C021C020C06AC21EC060
:100020001DC01CC01BC011241FBECFE5D2E0DEBF27
:10003000CDBF10E0A0E6B0E0EAECF5E002C005902C
:100040000D92A236B107D9F720E0A2E6B0E001C0D8
:100050001D92AA38B207E1F7BDD0B5C2D1CF8093C7
:100060007D00DA9AD89AD29AD09888EA8DB980EF32
:100070008EB910927E0008951F920F920FB60F92C4
:1000800011248F938EB110926200D09889B38DE0C5
:100090008A95F1F7000088EF8DB980EF8EB98F91C6
:1000A0000F900FBE0F901F9018951F920F920FB6D2
:1000B0000F9211248F939F93EF93FF93809162008F
:1000C000823009F44DC028F4882359F0813049F179
:1000D00078C0843009F44AC008F1853009F44CC076
:1000E00070C08FB1882331F08FB1869590917D00DB
:1000F000891359C081E080937E00789B07C080936C
:100100006200109278001092770003C084E0809320
:10011000620010928600109285004FC08FB181114D
:1001200042C0E0917700F0917800ED59FF4F808157
:100130008823C9F1E0917700F0917800ED59FF4FE5
:1001400080818FB98091770090917800019690938B
:1001500078008093770082E080936200D09A0AC092
:1001600083E080936200D0981FB829C085E0809317
:100170006200D09880E724C0E0918500F09186006D
:100180008FB1E758FF4F8083809185009091860062
:1001900001969093860080938500809185009091D0
:1001A0008600049739F488EA8DB980E78EB91092F9
:1001B0007E0007C084E0809362001FB8D09A8EE76B
:1001C0008EB9FF91EF919F918F910F900FBE0F907D
:1001D0001F901895A89584B7877F84BF81B58861E3
:1001E00081BD11BC889AD99A61B7809160009091C5
:1001F00061000397DAD10091600010916100C8019D
:100200000297CBD1C82F80EF8C0F803E30F4C8010D
:100210000197C3D1C81301C0C1BF8AB3886F8ABB1D
:1002200087B38F6787BB88B3816488BB8BB38066D5
:100230008BBB8BB387768BBB88B3817C88BBAF9A33
:1002400084EE82BB13BA80EE84BB12BE89B7826192
:1002500089BF81E083BF789484E001DF80917E00D4
:100260008823E1F380917E008111FCCF8DE790E03F
:10027000E9E7F0E020812093870011928E179F0715
:10028000C9F723E030E080917E008823E1F380917C
:100290007E008111FCCFE9E7F0E083E090E040814F
:1002A000DC01A158BF4F4C9311920197C0F7215028
:1002B000310949F7E6CF1F920F920FB60F92112422
:1002C0008F939F9380EE84BB12BE809188009091A3
:1002D000890001969093890080938800809188001E
:1002E00090918900449721F410928900109288001F
:1002F00088B3816488BB8BB380668BBB8BB38776F6
:100300008BBB88B3817C88BB9F918F910F900FBE70
:100310000F901F901895E0918300F0918400E158B0
:10032000FF4F8081853409F480C040F5843309F49F
:100330005DC090F4813309F451C038F48D3209F472
:1003400071C0803309F444C00895823309F448C071
:10035000833309F448C00895873309F452C038F450
:10036000853309F446C0863309F449C008958833BB
:1003700009F44CC0893309F44FC00895833B09F454
:1003800069C090F4803B09F457C038F4853609F40D
:100390004CC08D3A09F47DC00895813B09F452C0E8
:1003A000823B09F451C00895863B09F45FC038F4DC
:1003B000843B09F452C0853B09F452C00895883B40
:1003C00009F45BC008F454C0893B09F45CC008958B
:1003D0008BB388698BBB88B386612CC0DF9A14C04D
:1003E0008BB3886824C08BB3886805C08BB38069E1
:1003F00015C08BB388618BBB88B384631BC0DC9A48
:1004000008C08BB388688BBBC49A08958BB3886986
:100410008BBB88B386630EC08BB388698BBB88B3F4
:10042000806308C088B38F6D05C08BB388618BBBB8
:1004300088B3866288BB08958BB388698BBB88B309
:10044000866129C0DF9A17C08BB388688BBB88B3DD
:10045000866221C08BB3886805C08BB3806915C0E4
:100460008BB388618BBB88B3846315C0DC9A08C0EA
:100470008BB388688BBBC49A0FC08BB388698BBB66
:1004800088B3866308C08BB388698BBB88B38063ED
:1004900002C088B38F6D88BBDB9A0895809183007A
:1004A00090918400019690938400809383008091C2
:1004B00083009091840064E070E048D090938400C1
:1004C0008093830080918300909184008130910516
:1004D00061F024F4892B61F4C0980AC08230910540
:1004E00031F0039729F4C69803C0DD9801C0DE9867
:1004F00012CF1F920F920FB60F9211242F933F939A
:100500004F935F936F937F938F939F93AF93BF931B
:10051000EF93FF938091880090918900609187000C
:1005200070E014D0892B09F4B9DFFF91EF91BF91EE
:10053000AF919F918F917F916F915F914F913F917B
:100540002F910F900FBE0F901F90189597FB072EBD
:1005500016F4009406D077FD08D00BD007FC05D028
:100560003EF4909581959F4F0895709561957F4FCA
:100570000895AA1BBB1B51E107C0AA1FBB1FA617EA
:10058000B70710F0A61BB70B881F991F5A95A9F73C
:1005900080959095BC01CD010895E199FECF9FBB58
:1005A0008EBBE09A99278DB30895262FE199FECF4F
:1005B0001CBA9FBB8EBB2DBB0FB6F894E29AE19A92
:0A05C0000FBE01960895F894FFCFD6
:0205CA0000022D
:00000001FF
